S00F00006C6364313678322E73726563D1
S11300000C942A000C9447000C9447000C9447006D
S11300100C9447000C9447000C9447000C94470040
S11300200C9447000C9447000C9447000C94470030
S11300300C9447000C9447000C9447000C94470020
S11300400C9447000C9447000C9447000C94470010
S11300500C94470011241FBECFE5D4E0DEBFCDBF12
S113006010E0A0E6B0E0E2E7F2E002C005900D92F5
S1130070AE36B107D9F720E0AEE6B0E001C01D927C
S1130080AF36B207E1F70E941B010C9437010C94C0
S11300900000AB9A00C0AB980895CF93DF93D82F9C
S11300A0AA98662311F0979A01C0979884B3806F39
S11300B084BBC5B3CF708D2F807F8C2B85BB0E94F2
S11300C0490020E1D29FC00111248C2B85BB0E94E2
S11300D04900C06FC5BBDF91CF910895AA9A8823C8
S11300E011F0979A01C0979884B38F7084BBAB9A30
S11300F000C093B3907FAB9800C0AB9A00C083B3A9
S1130100AB9882958F70892B089580E00E946E00D1
S11301108823DCF300C000C080E00E946E000895D4
S1130120CF93C82F0E94850060E08C2F0E944D0061
S1130130CF910895CF93C82F0E94850061E08C2F42
S11301400E944D00CF91089581E00E94900008958F
S113015086E00E9490000895CF93C82F8F9AA29AA8
S1130160A39A84B3806F84BB8FE99FE00197F1F772
S113017000C00000AD9AAC9A0E94490081EE94E060
S11301800197F1F700C000000E94490095E19A959B
S1130190F1F700000E94490085E18A95F1F700001B
S11301A0AD9AAC980E94490095E19A95F1F7000048
S11301B088E20E94900088E00E9490000E94A400BF
S11301C00E94A800C0936E008C2F88600E9490004B
S11301D0CF910895CF93C82F0E948500CA3049F467
S11301E0803410F480E401C080E080680E949000B4
S11301F010C0803129F460E080EC0E944D0006C0FC
S1130200803521F460E080E80E944D008C2F0E942C
S11302109A00CF910895CF93DF93EC012196FC01CE
S11302208081882329F00E94EA0089918111FBCF03
S1130230DF91CF91089584E00E94AC0080E690E0C5
S11302400E940B012FEF89E698E1215080409040F5
S1130250E1F700C000000E94A4002FEF89E698E1B6
S1130260215080409040E1F700C00000E7CFF894AF
S1050270FFCFBA
S111027248656C6C6F2C20576F726C64210011
S9030000FC
